S0170000446174615F4C617463685F56322E312E7372656302
S11300000C94A0000C94BF000C944B010C94BD0004
S11300100C94BD000C94BD000C94BD000C94BD0068
S11300200C94BD000C94BD000C94BD000C94BD0058
S11300300C94BD000C94BD000C94BD000C94BD0048
S11300400C94BD000C94BD000C94BD000C94BD0038
S11300500C94BD00DA02D602D602D602D602D6022B
S1130060D602D602D602D602D602D602D602D602CC
S1130070D602D602D602D602D602D602D602D602BC
S1130080D602D602D602D602D602D602D602D602AC
S1130090D602D602D602D602D602D602D602D6029C
S11300A0D602D602D602D602D602D602D602D6028C
S11300B0D602D602D602A002A402A802AC02B00262
S11300C0B402D602D602D602D602D602D602D6028E
S11300D0D602D602D602D602D602D602D602C4026E
S11300E0D602D602D602D602D602D602D602D6024C
S11300F0D602D602D602B802CA02D602D002D6026C
S1130100D602BE02D602D602D602D602D602D60243
S1130110D602D602D602D602D6027C02D602D60275
S1130120D60267029B027102D6028802D6029202AC
S1130130D6027502D602D6026C0283028D029802A0
S113014011241FBECFE5D4E0DEBFCDBF10E0A0E692
S1130150B0E0E2E4FCE002C005900D92A838B107DB
S1130160D9F720E0A8E8B0E001C01D92A439B20795
S1130170E1F70E94DB020C941F060C9400001F920E
S11301800F920FB60F9211242F933F934F935F93C7
S11301906F937F938F939F93AF93BF93EF93FF934B
S11301A0809188000E942103809388002091880018
S11301B080918800207830E0807490E0880F991F47
S11301C02817390709F04DC080918D0090918E0059
S11301D0019690938E0080938D0020918D00309134
S11301E08E0080919200909193008217930708F0FB
S11301F041C080919100823029F5909189008091CD
S11302008A009817F8F084E6809391001092890090
S11302108CB59DB51DBC1CBC4297A0F480EE0E9419
S11302202C0510928E0010928D0010929300109263
S1130230920080E1809389001092900010928F00C8
S113024010929100809189008F5F80938900809142
S11302509200909193000196909393008093920062
S113026009C080918D0090918E00019790938E002B
S113027080938D00FF91EF91BF91AF919F918F91EA
S11302807F916F915F914F913F912F910F900FBE8E
S11302900F901F9018951F920F920FB60F92112472
S11302A02F933F934F935F936F937F938F939F937A
S11302B0AF93BF93EF93FF9380919100823021F02D
S11302C080919100843669F480918D0090918E0024
S11302D0873B9B4230F0F894809191008F5F80932C
S11302E0910080919100882321F0809191008130C8
S11302F089F580918D0090918E00813F954050F159
S113030080918D0090918E008039964018F580E0A0
S11303100E942C0590918800809188009074990F18
S11303208F77892B8093880010928E0010928D0015
S1130330109293001092920080E1809389001092B1
S1130340900010928F0082E08093910084E190E00D
S11303509DBD8CBDFF91EF91BF91AF919F918F9106
S11303607F916F915F914F913F912F910F900FBEAD
S11303700F901F901895CF93DF93CDB7DEB7619799
S11303800FB6F894DEBF0FBECDBF80EE0E942C05E1
S11303908CE0E0E6F0E0DE01119601900D928A9582
S11303A0E1F7CE0101960E94F8040E943A0480917C
S11303B08F00909190000E9469051092910085E051
S11303C0ECE6F0E0DE011D9601900D928A95E1F7CE
S11303D0CE010D960E94F804789461960FB6F894B5
S11303E0DEBF0FBECDBFDF91CF91089510928E0076
S11303F010928D00109293001092920080E18093ED
S113040089001092900010928F000895CF93DF938B
S113041000D000D000D0CDB7DEB7AE014F5F5F4F44
S1130420BE016B5F7F4FCE0103960E944C03809107
S11304308F009091900029813A814D815E816B817A
S11304407C81FC01EE0FFF1F8E0F9F1F880F991FE9
S11304500E94380580918F009091900001969093AE
S1130460900080938F0082E08093910026960FB6CF
S1130470F894DEBF0FBECDBFDF91CF910895809178
S11304809100882321F080919100813099F480912A
S11304908D0090918E00813C9B4260F08091880099
S11304A0909188008074880F9F77892B80938800AF
S11304B00E94F60108950E94260590E08637910572
S11304C008F074C0FC01E65DFF4F0C94E405109243
S11304D091000E948C030895109291000E942004C0
S11304E00895809191008CB9089580918F00909126
S11304F090000E940705089580918D0090918E00D0
S11305000E94ED040895109291000E94AE04089593
S1130510109291000E94C2030895109291000E94CB
S11305207E04089581E0809391000E94F60108956D
S1130530109291000895109291000E943D04089534
S113054080E20E942C05089580E40E942C05089501
S113055080EA0E942C05089580EC0E942C050895E1
S11305608FEF0E942C05089580E00E942C050895C9
S1130570109291008AE080938A000895109291006D
S113058080E180938A0008951092910084E1809321
S11305908A0008951092910089E180938A00089559
S11305A0109291008CE180938A00089582E58CB9C1
S11305B01092910008950E94540410929100109298
S11305C08E0010928D0080EE0E942C0580E18093B5
S11305D08A0078940E943F0280919100823099F0C1
S11305E028F4882351F0813059F019C0843689F0F9
S11305F0853691F0833099F409C00E945B02EACFFA
S11306000E945B02E7CF0E945B02E4CF0E94BB0121
S1130610E1CF0E940602DECF0E94BB01DBCF109225
S11306209100D8CF8F70843051F018F4823029F4BF
S113063006C08B3021F08D3011F080E4089580E005
S11306400895CF9393B38C7FC92FC076C295C69576
S1130650C770C82B8C2F0E941203CF7BC82B8C2F02
S11306608370880F880FC37F8C2BCF9108951F93BD
S1130670CF93DF93182F81E00E943305C82FD0E079
S1130680DC2FCC27812F0E9433059E01282BC90122
S1130690DF91CF911F910895EF92FF920F931F93D3
S11306A0CF93DF937C018B01EA01C49880E80E9418
S11306B033058EE00E94330580E00E94330581E01B
S11306C00E9433059C9BFECF81E00E94330582E2A9
S11306D00E94330581E00E94330580E10E943305C6
S11306E082E10E94370383E10E943703F70191837B
S11306F0808384E10E943703F8019183808382E13F
S11307000E94370399838883C49ADF91CF911F9104
S11307100F91FF90EF900895CF93DF9300D000D016
S113072000D0CDB7DEB7AE014F5F5F4FBE016B5F48
S11307307F4FCE0103960E944C038AE58CB95D9BE2
S1130740FECF89819A810E94070588E58CB95D9B5B
S1130750FECF8B819C810E94070589E58CB95D9B46
S1130760FECF8D819E810E9407058AE08CB95D9B36
S1130770FECF26960FB6F894DEBF0FBECDBFDF9135
S1130780CF9108950F931F93CF93DF93CDB7DEB727
S11307902E970FB6F894DEBF0FBECDBFC498AE013E
S11307A04F5F5F4FBE016B5F7F4FCE0103960E9488
S11307B04C03C49881E00E94330580E10E94330514
S11307C081E00E943305082F80E10E94330510E088
S11307D0102F0027082B88E0E7E7F0E0DE011796EA
S11307E001900D928A95E1F7CE0107960E94F804D4
S11307F0C8010E940705C49A2E960FB6F894DEBF6E
S11308000FBECDBFDF91CF911F910F910895CF936C
S1130810C49881E00E94330587E00E94330581E09B
S11308200E943305C82F87E00E943305C49A2C2FF9
S113083030E0322F2227A901482BCA01CF91089515
S1130840C498C2982FEF8FE796E1215080409040E2
S1130850E1F700C00000C29A8FEF9FE80197F1F71B
S113086000C000000E9407040E94ED040E94450499
S1130870C49A089580E58DB908958CE68CB95D9B82
S1130880FECF8F5F8137D1F70895C49880E80E9426
S113089033058BE00E94330580E00E94330580E03D
S11308A00E943305C49A089510BC83E089B986E890
S11308B080BD80E88ABB8EEB87BB8CE084BB82E47E
S11308C081BBC49AAB9AC19AC39AAD9A88E18AB99A
S11308D081E08EB980E58DB9C298C3988AEF83BD53
S11308E08DE085BF80EC8BBF80E40E94D8050E9418
S11308F020040E94450485E08EBD08950F931F9344
S1130900CF93DF930E942605811120C0D0E0C1E07F
S113091000E011E08C2F0E942C052FEF8FE794E06C
S1130920215080409040E1F700C00000D11106C082
S1130930CC0FD12FC03831F0D02F04C0C695C130B0
S113094009F4D02F0E942605882321F380E00E9419
S11309502C05DF91CF911F910F910895EF92FF9293
S11309600F931F93CF93DF9300D000D000D0CDB767
S1130970DEB79798AF9AE12CF12C00E010E0AE01BD
S11309804B5F5F4FBE016F5F7F4FCE0103960E94A6
S11309904C039801A801B801C7010E9438050F5FF4
S11309A01F4F86E0E80EF11C0C3B82E0180739F774
S11309B0AF98979A0E943A0484E398E00E946905EC
S11309C026960FB6F894DEBF0FBECDBFDF91CF9150
S11309D01F910F91FF90EF9008958CB95D9BFECF0E
S11309E09CB95D9BFECF08955D9BFECF8CB90895A5
S11309F0CF93DF93EC018881882331F021960E9404
S1130A00F40489918111FBCFDF91CF910895CF93A5
S1130A10DF93CDB7DEB72A970FB6F894DEBF0FBECB
S1130A20CDBF4AE0BE016F5F7F4F0E94EA05CE0151
S1130A3001960E94F8045D9BFECF2A960FB6F894A7
S1130A40DEBF0FBECDBFDF91CF9108955F9B02C083
S1130A508CB1089580E008958FB9779BFECFDF981D
S1130A60DF9ADF9808958FB9779BFECF8FB10895F1
S1130A701F93CF93DF93CDB7DEB72A970FB6F894C1
S1130A80DEBF0FBECDBFFE0131961AE0DF011D921D
S1130A901A95E9F7A2E0A983AB982A873987488792
S1130AA05F836E837D838C839B83CE010B96219120
S1130AB02FB9779BFECFE817F907C9F7AB9A2A96A7
S1130AC00FB6F894DEBF0FBECDBFDF91CF911F915B
S1130AD008958F929F92BF92CF92EF92FF921F93AD
S1130AE0CF93DF9300D000D0CDB7DEB77C0183E095
S1130AF089831A821B821C822FEF8FE794E0215096
S1130B0080409040E1F700C00000AB9800C000C0F6
S1130B10FE013196CE01059621912FB9779BFECF28
S1130B20E817F907C9F7E114F10499F1812C912C24
S1130B30B12C0F2EF5EDCF2EF02D29C0113049F038
S1130B4018F0123059F00EC08FE790E00E94F804BC
S1130B5009C082E890E00E94F80404C085E890E0AF
S1130B600E94F804CFB8779BFECF2FB1CFB8779B04
S1130B70FECF8FB190E0922B0E9407051F5F1330C8
S1130B80E9F62FEF821A920A8E149F0411F01B2D9E
S1130B90D5CFAB9A0F900F900F900F90DF91CF911C
S1130BA01F91FF90EF90CF90BF909F908F900895EA
S1130BB0AB9800C000C091E09FB9779BFECF8FB97E
S1130BC0779BFECFAB9A0895EE0FFF1F0590F4912B
S1130BD0E02D0994BB274A3031F4992322F4BDE275
S1130BE0909581959F4F0C94F605BB27FB015527E3
S1130BF0AA27880F991FAA1FA41710F0A41B839576
S1130C005051B9F7A05DAA3308F0A95DA1930097EC
S1130C1079F7B111B1931192CB010C940F06DC0159
S1130C20FC01672F71917723E1F7329704C07C911F
S1130C306D9370836291AE17BF07C8F30895F8945B
S1050C40FFCFE0
S1130C424D65737377657274653A0A00454E440ABA
S1130C5200534156450A0054656D702E3A0A0058F5
S10B0C623A00593A005A3A0025
S9030000FC
